:1000000071C0000099C6000097C6000095C60000A8
:1000100093C6000091C600008FC600008DC6000088
:100020008BC6000089C6000087C6000085C6000098
:1000300083C6000081C600007FC600007DC60000A8
:10004000C5C6000079C6000077C6000075C600006E
:1000500073C6000071C600006FC600006DC60000C8
:10006000D4C6000069C6000067C6000065C600006F
:1000700063C6000061C600005FC600005DC60000E8
:100080005BC6000059C6000057C6000055C60000F8
:1000900053C6000051C600004FC600004DC6000008
:1000A0004BC6000049C6000047C6000045C6000018
:1000B00043C6000005A84CCDB2D44EB93836A902CB
:1000C0000C50B9918688083CA6AAAA2ABE00000056
:1000D000803F0100039E80039E03E1001EFA03E1BE
:1000E00003E7800011241FBECFEFD8E0DEBFCDBFF5
:1000F000E2EDF0E040E017C0B591A5913591259172
:10010000059107FD0CC095918591EF01F92FE82F1E
:1001100005900D92A217B307D9F7FE0104C01D92F6
:10012000A217B307E1F7E33EF40731F703D000C0AD
:04013000F894FFCF71
:10013400AED12FEF84E39CE0215080409040E1F762
:1001440000C000006FE77DE080E01AD08091BC0021
:1001540085648093BC00789408C05AD082D08FE123
:100164009EE40197F1F700C000009091E4038091B0
:10017400E303981799F389278F7179F3EED0EDCFC4
:10018400CF92DF92EF920F931F93CF93DF93E0917F
:100194009A03F0919B03948191FF2DC06B01E82E8B
:1001A400D0E0C0E008E913E0F6018491E7FC808127
:1001B4008823A1F0D80112966D917C911397DB01ED
:1001C4001996ED91FC911A970995892B11F0DFEF9F
:1001D400CFEFBFEFCB1ADB0AEB0AE6CF60919A03AD
:1001E40070919B03DB011996ED91FC911A978AE0BB
:1001F4000995892B19F08FEF9FEF02C08D2F9C2F4B
:10020400DF91CF911F910F91EF90DF90CF900895E0
:100214009091E3038091E4038927807E09F4089593
:1002240092959695977090930A011F929F9386E6F4
:100234009DE0A0E0AF939F938F9345D180910A01F5
:1002440027D18091E403982F9F718091E303807EEE
:10025400892B8093E4030F900F900F900F900F90D1
:020264000895FB
:100266008091B503882379F0813009F457C0823034
:1002760061F0833031F1843009F460C08530A1F13A
:10028600863079F1089581E031C1E8E1F1E0A0E638
:10029600B2E040E552E020E080819D91981718F485
:1002A6008150808321E0891718F48F5F808321E0D5
:1002B60031964E175F0781F721114CC183E016D1A5
:1002C60049C1E091E503F0E0EE0FFF1FEE0FFF1FBF
:1002D600E555FC4F0190F081E02D09958111EDCF98
:1002E600089587E003D195C1E8E1F1E0A0E6B2E028
:1002F60020E080819D91981718F48150808321E039
:10030600891718F48F5F808321E0319682E0E0350B
:10031600F80779F72111D1CF86E0D1CFE091E50337
:10032600F0E0EE0FFF1FEE0FFF1FE755FC4F0190A9
:10033600F081E02D099582E0D9D067C185E0D6D05D
:10034600E0E6F2E088E993E01082118212823396A9
:080356008E179F07C9F70895F7
:10035E00CF92DF92EF92CF93DF931092090180E05C
:10036E0026E4C22E2DE0D22E20E0E22EC1E0D0E017
:10037E0065C02091E40330E0082E02C03595279524
:10038E000A94E2F7622F6170609308012091E303F3
:10039E0030E0F90102C0F595E7958A95E2F7CF01B5
:1003AE00817080930A01681709F451C01F928F93D0
:1003BE005F934F93EF92DF92CF9280D020910901FD
:1003CE0030E0F901ED5FFE4F80919E03808381E066
:1003DE0090910A01911101C080E0220F331FF901A3
:1003EE00E156FC4F0190F081E02D099580910901B5
:1003FE002DB73EB7295F3F4F0FB6F8943EBF0FBEE5
:10040E002DBF843089F19E01082E01C0220F0A945F
:10041E00EAF720959091E403422F492390910A0127
:10042E00292F082E01C0220F0A94EAF7242B2093BD
:10043E00E4038F5F80930901853080F4482F50E0EC
:10044E00FA01ED5FFE4F9081992309F492CF8091CE
:10045E0009018F5F80930901853080F3DF91CF9181
:10046E00EF90DF90CF90089581E090910A0199234B
:10047E0021F0CFD080910901C6CF80E0CAD0809103
:04048E000901C1CFD0
:02049200CCC0DC
:10049400833040F48093E5038091B503873089F07D
:1004A40081E025C01F928F9386E39FE0A0E0AF9385
:1004B4009F938F9308D00F900F900F900F900F90F1
:0604C400089580E014C061
:1004CA00A0E0B0E0EAE6F2E01DC39E012B5F3F4FD9
:1004DA00F9014191519161919F0180919A03909103
:0804EA009B03CED0E2E0F3C257
:1004F200CF93C82FE82FF0E0CF01880F991FE80FA4
:10050200F91FEA54FC4F82818F9381818F938081FE
:100512008F93E091B503F0E0CF01880F991FE80FA8
:10052200F91FEA54FC4F82818F9381818F938081DE
:100532008F9386E19FE0A0E0AF939F938F93C4DFF8
:10054200C093B5038DB79EB709960FB6F8949EBFB8
:080552000FBE8DBFCF9108958B
:10055A001EBC0DB407FEFDCF1EBC0DB407FEFDCFB9
:10056A001EBC0DB407FEFDCF1EBC0DB407FEFDCFA9
:10057A0010925602109255022FEF2EBD0DB407FEAF
:10058A00FDCFE0915502F0915602E85EFE4F82815E
:10059A008EBD0DB407FEFDCFE0915502F0915602D3
:1005AA00E85EFE4F81818EBD0DB407FEFDCFE0915E
:1005BA005502F0915602E85EFE4F80818EBD0DB461
:1005CA0007FEFDCF809155029091560203969093B3
:1005DA005602809355028833914078F2109256025F
:1005EA00109255022FEF2EBD0DB407FEFDCF80915C
:1005FA0055029091560201969093560280935502A5
:06060A000E9788F308952D
:080610008CB580648CBD0895D7
:080618008CB58F7B8CBD0895A9
:0C062000811102C084E065CF80E063CF50
:10062C008DE3809365008FEF8093640094B114B8D0
:10063C0095B185B997B1907897B998B19F6798B9EA
:10064C009AB11AB89BB18BB98DB1807F8DB98EB12F
:10065C008F608EB9539A5B98549A5C98559A5D98B2
:10066C00569A5E98579A5F9840E060E881E690E071
:0E067C0073D213BE15BE51D257D25DD268C2E2
:10068A002F923F924F926F927F928F929F92AF9248
:10069A00BF92CF92DF92EF92FF920F931F93CF9365
:1006AA00DF93CDB7DEB762970FB6F894DEBF0FBE01
:1006BA00CDBF6C013A01862E7901FC0110861782A2
:1006CA00848181FFDAC19E012F5F3F4F3D872C87CE
:1006DA00C901A0E8888B998BAA8B9FE3992EF30115
:1006EA00849187FC8081882309F4C3C1482D930132
:1006FA002F5F3F4F4F4F853219F03901842E0AC0C0
:10070A00F901849147FD808192E0690E711C811C78
:10071A00853221F4B60190E027D2E1CFB12C00E076
:10072A0010E01032A0F48B3269F030F4803259F0C4
:10073A00833269F410612CC08D3239F0803339F478
:10074A00116026C01260146023C0186021C017FD12
:10075A0029C090ED980F9A3078F416FF06C0AAE0E7
:10076A00BA9E900D1124B92E13C0EAE00E9F900D87
:10077A001124092F10620CC08E3221F416FD79C1A2
:10078A00106406C08C3611F4106802C0883651F421
:10079A00F301849187FC8081FFEF6F1A7F0A8F0A29
:1007AA008111BFCF982F9F7D9554933028F424E070
:1007BA00E20EF11C99820FC0833631F0833791F033
:1007CA00833509F05FC026C0F701808189839701CC
:1007DA002E5F3F4F7901288839884A88AA24A39432
:1007EA00B12C16C0A7014D5F5F4F5F874E87F70197
:1007FA0020803180428016FF03C04B2D50E002C09A
:10080A004FEF5FEF842DB10149D25C01EE84FF8482
:10081A001F7717C097012D5F3F4F3F872E87F7013C
:10082A0020803180428016FF03C04B2D50E002C069
:10083A004FEF5FEF842DB10131D25C011068EE8475
:10084A00FF8413FD1BC0802F90E0A816B906B0F4F0
:10085A00B60180E290E088D10150F5CFF101849190
:10086A0047FC8081FFEF2F1A3F0A4F0AB60190E03A
:10087A007BD10111015021E0A21AB108A114B104DF
:10088A0069F7EEC0843611F0893669F5F70117FF6A
:10089A0008C0608171818281938197012C5F3F4FEB
:1008AA0009C060817181072E000C880B990B970192
:1008BA002E5F3F4F79011F76312E97FF0AC0909520
:1008CA008095709561957F4F8F4F9F4F312F30687C
:1008DA00332E2AE030E0AE014F5F5F4F81D1482EC0
:1008EA004C85441A49C0853729F41F7EA12E2AE077
:1008FA0030E025C0512F597FA52E8F36C1F018F44C
:10090A00883579F0B6C0803719F0883721F0B1C040
:10091A00852F8061A82EA4FE0DC09A2D9460A92E61
:10092A0009C014FF0AC0A52FA660AA2E06C028E097
:10093A0030E005C020E130E002C020E132E0F701FA
:10094A00A7FE08C06081718182819381A7014C5FF3
:10095A005F4F07C06081718180E090E0A7014E5F20
:10096A005F4F7A01AE014F5F5F4F3AD1482E5C85E7
:10097A00451A8A2D8F77382E36FE0DC0932D9E7F0D
:10098A00A92E4B1458F434FE0BC032FC09C0A32D17
:10099A00AE7EAA2E05C0142DA32C03C0142D01C0AF
:1009AA001B2DA4FE0EC0FE01E40DF11D80818033D3
:1009BA0021F4EA2DE97EAE2E08C0A2FE05C01E5F14
:1009CA0004C08A2D867809F01F5FA3FC10C0A0FE20
:1009DA0006C0101780F4040DB02EB11A0DC01017FE
:1009EA0058F4B60180E290E0BFD01F5FF8CF10172D
:1009FA0018F4011B02C0B42C00E0A4FE0FC0B6011B
:100A0A0080E390E0B1D0A2FE16C0A1FC03C088E743
:100A1A0090E002C088E590E0B6010CC08A2D867885
:100A2A0051F0A1FE02C08BE201C080E2A7FC8DE278
:100A3A00B60190E099D04B1430F4B60180E390E00F
:100A4A0093D0BA94F8CF4A94E1E0F0E0EC0FFD1F9E
:100A5A00E40DF11D8081B60190E086D04110F3CFFC
:100A6A00002309F43CCEB60180E290E07DD001502B
:100A7A00F7CFF6018781908502C08FEF9FEF6296CC
:100A8A000FB6F894DEBF0FBECDBFDF91CF911F9195
:100A9A000F91FF90EF90DF90CF90BF90AF909F9013
:0E0AAA008F907F906F904F903F902F90089507
:100AB8002A88398848885F846E847D848C849B84E6
:100AC800AA84B984C884DF80EE80FD800C811B81F4
:100AD800AA81B981CE0FD11D0FB6F894DEBF0FBE23
:060AE800CDBFED010895F1
:100AEE002F923F924F925F926F927F928F929F9230
:100AFE00AF92BF92CF92DF92EF92FF920F931F931E
:100B0E00CF93DF93CDB7DEB7CA1BDB0B0FB6F894CE
:080B1E00DEBF0FBECDBF09943C
:0E0B26003D9A459845983C9A44984498D4C00E
:0E0B340024982C98239A2B98259A2D98D9C096
:100B4200E4E6F0E080818F7D808384E085BD81E0F2
:080B520080936E0080E008951D
:0A0B5A0050985898519A5998D2C04B
:0E0B64002FB7F894FC01608340832FBF0895E3
:100B72000F931F93CF93DF93FB01248121FD03C0C9
:100B82008FEF9FEF2CC022FF16C047815085258131
:100B920036814217530744F4A081B1819D012F5F32
:100BA2003F4F318320838C93278130852F5F3F4FC6
:100BB2003087278314C08B01EC01FB010184F2858D
:100BC200E02D0995892BE1F6D80117968D919C911C
:100BD2001897019618969C938E931797CE01DF91E2
:080BE200CF911F910F910895BE
:100BEA00FA01AA27283051F1203181F1E8946F9354
:100BFA006E7F6E5F7F4F8F4F9F4FAF4FB1E03ED0FA
:100C0A00B4E03CD0670F781F891F9A1FA11D680F97
:100C1A00791F8A1F911DA11D6A0F711D811D911DCA
:100C2A00A11D20D009F468943F912AE0269F11243F
:100C3A003019305D3193DEF6CF010895462F4770A3
:100C4A00405D4193B3E00FD0C9F7F6CF462F4F70FE
:100C5A00405D4A3318F0495D31FD4052419302D05C
:100C6A00A9F7EACFB4E0A695979587957795679502
:100C7A00BA95C9F700976105710508959B01AC0102
:100C8A000A2E06945795479537952795BA95C9F729
:0C0C9A00620F731F841F951FA01D08959A
:100CA600CF92DF92EF926B01E82EA82FCB01411570
:100CB600510531F48C199D09EF90DF90CF9008957E
:100CC600FC012491A7FD20812223A1F30196A11DF9
:060CD60041505109ECCF72
:100CDC00E4E6F0E080818F77808384E88093BA002B
:080CEC001092BD0080E00895A4
:100CF400E4E6F0E080818B7F808380E58CBD1092F8
:040D0400E603089565
:100D0800E4E6F0E080818D7F80831092C50088E062
:100D18008093C40082E08093C00088E88093C1007B
:100D28008EEC93E090939B0380939A0380E0089560
:020D380063C98D
:0C0D3A00811102C05E9808955E9A089531
:100D460052656C6179203078253032686858207396
:100D5600657420746F2030782530326868580A0030
:100D660050726F6772616D2073657420746F2030E6
:100D7600782530326868580A000A6C696768742DED
:100D86006465736B2D626F782076302E3120627920
:050D9600206B697500EF
:0D0D9B0000811102C05F9808955F9A0895CD
:0C0DA800811102C05B9808955B9A0895C9
:0C0DB400811102C05C9808955C9A0895BB
:0C0DC000811102C05D9808955D9A0895AD
:100DCC001F920F920FB60F9211248F93EF93FF93F4
:100DDC00E3E0F1E08081882311F08150808331962B
:100DEC0081E0E830F807B1F785E080930001FF91CE
:0E0DFC00EF918F910F900FBE0F901F901895E2
:100E0A001F920F920FB60F9211248F939F93EF9315
:100E1A00FF938091B900887F883709F444C038F17C
:100E2A008039B1F1D0F08839E1F0803A69F48091E3
:100E3A00BC00806C8093BC008091E103882321F080
:100E4A00809102018093E303FF91EF919F918F912B
:100E5A000F900FBE0F901F9018958038C9F08838F0
:100E6A0099F78091BC0080688093BC00EDCF8036F2
:100E7A00D1F0A8F48111E8CF1092BC008FEC97E072
:100E8A000197F1F700C000008091BC008564ECCFA7
:100E9A00E091E203E23080F01092E103E2CF88367B
:100EAA0011F0803789F61092E20381E08093E10322
:100EBA008091BC00806CD8CF81E08E0F8093E203D2
:0E0ECA008091BB00F0E0EF5FFE4F8083F1CF20
:100ED800E0E6F2E08FEF90EE808381839283339691
:0C0EE80023E0E839F207C1F781E008952B
:040EF40080E00895FD
:100EF800FC01E85EFE4FA1E1B1E08C918083119680
:0E0F08008C911197818312968C9182830895AB
:100F1600524742207374617465206368616E676529
:100F26002066726F6D20257320746F2025730A006A
:100F360049676E6F72696E672070676D20636861BE
:100F46006E676520746F2030782530326868580ADD
:100F560000454E41424C4500494E49545F555000AC
:100F660055500052554E4E494E4700494E49545F22
:100F7600444F574E00444F574E0044495341424C4C
:060F860045004F46460045
:100F8C004F925F926F927F928F929F92AF92BF928D
:100F9C00CF92DF92EF92FF920F931F93CF93DF9339
:100FAC00CDB7DEB72A970FB6F894DEBF0FBECDBF14
:100FBC002B013C0149015A01E982FA820B831C8303
:100FCC00DA86C986D6011C9211961C92119712963C
:100FDC001C9220E030E044EB53E4F1D118164CF4B1
:100FEC0020E030E044EB53E4C301B201AED12B015D
:100FFC003C0120E030E044EB53E4C301B201E3D107
:10100C0020ED3FE049E450E49ED120E030E044E3A1
:10101C0053E4CCD12B013C0120E030E0A901C50107
:10102C00B401CDD118160CF065C120E030E040E8D9
:10103C005FE3C501B401BFD187FD79C11D821E825A
:10104C001F821886812C912C90E8A92E9FE3B92E33
:10105C0020E030E0A90169817A818B819C81AFD13C
:10106C0018160CF043C120E030E040E85FE36981E2
:10107C007A818B819C819FD187FD48C1C12CD12C59
:10108C008AEAE82E82E4F82E2CE73AE046E050E4B7
:10109C00C301B20190D187FDD8C02BE83AE046E8F5
:1010AC0050E4C301B20187D187FD73C02BE83AE04D
:1010BC0046E850E4C301B20148D169837A838B833B
:1010CC009C8376D12B013C0129813A814B815C8137
:1010DC006AE87AE086E89FE338D16AD169837A833B
:1010EC008B839C83A3019201C501B4012CD129816E
:1010FC003A814B815C815AD120E030E040E85FE3DB
:10110C0025D1A70196011FD125D1A985BA851296A3
:10111C006C9329813A814B815C81C301B20146D128
:10112C009B01AC0160E070E080E89FE30ED1A5016B
:10113C00940109D120E030E040E85FE307D1A7013A
:10114C00960101D107D1E985FA856083A701960143
:10115C006D817E818F819885F6D0FCD0A985BA856A
:10116C0011966C932A960FB6F894DEBF0FBECDBFC6
:10117C00DF91CF911F910F91FF90EF90DF90CF9067
:10118C00BF90AF909F908F907F906F905F904F909B
:10119C0008952CE73AE046E050E4C301B201D5D003
:1011AC0069837A838B839C8303D12B013C01298136
:1011BC003A814B815C816AE87AE086E89FE3C5D08E
:1011CC00F7D069837A838B839C83A3019201C50139
:1011DC00B401B9D029813A814B815C81E7D020E000
:1011EC0030E040E85FE3B2D0A7019601ACD0B2D0BA
:1011FC00E985FA85618329813A814B815C81C30140
:10120C00B201D4D09B01AC0160E070E080E89FE3B8
:10121C009CD0A501940197D020E030E040E85FE33A
:10122C0095D0A70196018FD095D0A985BA85129635
:10123C006C93A70196016D817E818F81988583D0F7
:10124C0089D0E985FA8560838DCFC301B201B0D016
:10125C0069837A838B839C83A30192016AE87AE089
:10126C0086E89FE372D0A4D02B013C0129813A81FE
:10127C004B815C81C501B40166D0A301920196D06B
:10128C0020E030E040E85FE361D0A70196015BD03D
:10129C0061D0A985BA856C93A301920169817A8189
:1012AC008B819C8183D09B01AC0160E070E080E875
:1012BC009FE34BD0A501940146D020E030E040E8FC
:1012CC005FE344D0A70196013ED044D0E985FA856E
:1012DC006183A70196016D817E818F81988533D0C2
:1012EC0039D0A985BA8512966C933CCFC12CD12CE0
:1012FC007601CACE80E090E0A0E8BFE38D839E83A8
:10130C00AF83B887812C912C5401A2CE20E030E021
:10131C004FE753E469817A818B819C8114D020E062
:10132C0030E040E450E442D06B017C01ADCEA5012D
:10133C00940160E070E080E89FE307D06D837E83CA
:06134C008F83988785CE17
:041352009FD08DC0DB
:0A1356005058BB27AA27FCD088C01E
:101360006AD188F09F5790F0B92F9927B751A0F014
:10137000D1F0660F771F881F991F1AF0BA95C9F729
:1013800012C0B13081F048D1B1E0089545C1672F56
:10139000782F8827B85F39F0B93FCCF386957795D9
:1013A0006795B395D9F73EF49095809570956195C2
:0813B0007F4F8F4F9F4F0895FE
:0413B80058D15AC0EE
:0613BC00CED1E395BBC198
:0813C200F3D108F481E0089565
:0813CA00EFD108F48FEF089544
:1013D20007C026D218F011F00BD238F410C21CC18B
:1013E200E92F20D1B0F35523C9F3E7FB6217730746
:1013F20084079507A8F199F3E92FFF2788232AF09C
:101402003197660F771F881FDAF7952F55274423E8
:1014120032F091505040220F331F441FD2F7BB27A6
:10142200E91BF50B621B730B840BB109C1F222F4A9
:10143200620F731F841FB11D31972AF0660F771F49
:10144200881FBB1FEFCF915050405AF041F08823C4
:1014520032F0660F771F881F91505040C1F7939565
:0E146200D1C18695779567959F5FD9F7F8CF32
:10147000092E0394000C11F4882352F0BB0F40F4A2
:10148000BF2B11F460FF04C06F5F7F4F8F4F9F4FE2
:021490000895BD
:101492000AC0C6D128F0ACD118F0952309F0C7C113
:1014A200AEC11124B9C0BED0A0F3959FD1F3950F60
:1014B20050E0551F629FF001729FBB27F00DB11DD6
:1014C200639FAA27F00DB11DAA1F649F6627B00D66
:1014D200A11D661F829F2227B00DA11D621F739F4F
:1014E200B00DA11D621F839FA00D611D221F749F5D
:1014F2003327A00D611D231F849F600D211D822FA4
:10150200762F6A2F11249F5750408AF0E1F08823EA
:101512004AF0EE0FFF1FBB1F661F771F881F9150F7
:101522005040A9F79E3F510570F081C175C05F3FE1
:10153200ECF3983EDCF3869577956795B795F7952A
:10154200E7959F5FC1F7FE2B880F911D96958795B2
:0415520097F9089568
:101556000DC064D130F04AD120F031F49F3F11F430
:101566001EF44BC10EF4E095E7FB5FC1E92F58D09E
:1015760080F3BA17620773078407950718F071F4AA
:101586009EF547C00EF4E0950B2EBA2FA02D0B0149
:10159600B90190010C01CA01A0011124FF27591BB2
:1015A60099F0593F50F4503E68F11A16F040A22FB8
:1015B600232F342F4427585FF3CF46953795279529
:1015C600A795F0405395C9F77EF41F16BA0B620B28
:1015D600730B840BBAF09150A1F0FF0FBB1F661F6F
:1015E600771F881FC2F70EC0BA0F621F731F841FB2
:1015F60048F4879577956795B795F7959E3F08F0D8
:10160600B3CF9395880F08F09927EE0F9795879596
:02161600089535
:0E161800E894BB2766277727CB0197F9089542
:1016260057FD9058440F551F59F05F3F71F047958D
:10163600880F97FB991F61F09F3F79F08795089572
:10164600121613061406551FF2CF4695F1DF08C091
:10165600161617061806991FF1CF869571056105AE
:041666000894089547
:10166A000BC0C2D040F0D8D030F021F45F3F19F05F
:10167A00DAC05111CDCFBFC0D1DF98F39923C9F396
:10168A005523B1F3951B550BBB27AA27621773077E
:10169A00840738F09F5F5F4F220F331F441FAA1F32
:1016AA00A9F333D00E2E3AF0E0E830D091505040F2
:1016BA00E695001CCAF729D0FE2F27D0660F771FA0
:1016CA00881FBB1F261737074807AB07B0E809F082
:1016DA00BB0B802DBF01FF2793585F4F2AF09E3F17
:1016EA00510568F0A0C094CF5F3FECF3983EDCF35D
:1016FA00869577956795B795F7959F5FC9F7880F90
:10170A00911D9695879597F90895E1E0660F771FE1
:10171A00881FBB1F621773078407BA0720F0621B72
:0E172A00730B840BBA0BEE1F88F7E095089541
:10173800EF93E0FF06C0A2EA2AED3FE049EC5FEB39
:1017480006DF92DE0F90039401FC9058E4EBF0E082
:0217580071C05E
:10175A006DDF08F450C0E894E0E0BB279F57F0F033
:10176A002AED3FE049EC06C0EE0FBB0F661F771F5C
:10177A00881F28F0B23A62077307840728F0B25A22
:10178A00620B730B840BE3959A9572F7803830F4E9
:10179A009A95BB0F661F771F881FD2F7904830C0F3
:1017AA00990F0008550FAA0BE0E8FEEF1616170668
:1017BA00E807F907C0F012161306E407F50798F0D0
:1017CA00621B730B840B950B39F40A2661F0232BE9
:1017DA00242B252B21F408950A2609F4A140A69565
:0817EA008FEF811D811D0895A0
:0E17F20000240A941216130614060506089524
:061800009FEF80EC08954B
:101806009F3F31F0915020F4879577956795B7956E
:0C181600880F911D9695879597F908950D
:0E18220000240A9416161706180609060895E3
:0C18300097F99F6780E870E060E0089581
:10183C009F938F937F936F93FF93EF939B01AC01D7
:10184C0082DDEF91FF9105D02F913F914F915F91E8
:02185C007ACD43
:10185E00DF93CF931F930F93FF92EF92DF927B0153
:10186E008C01689405C0DA2EEF010CDEFE01E894BF
:10187E00A5912591359145915591AEF3EF0164DE19
:10188E00FE019701A801DA9479F7DF90EF90FF90AF
:0A189E000F911F91CF91DF91089583
:1018A800CF92DF92EF92FF920F931F93D0D0BC019B
:1018B800990F880B990B49D020E03EEF4FEF56E483
:1018C80077DD20E030E040E251E472DD2AE037EDD8
:1018D80043E25CE33DDD609314017093150180934E
:1018E80016019093170110925C0210925D021092FB
:1018F8005E0210925F021092570281E1C82E81E0C9
:10190800D82EE12CF12C00E81FE3A801970160E034
:1019180070E0CB0137DB2091130190911201809187
:101928001101E0E6F2E0808391832283339633E06D
:10193800E839F307C1F781E01F910F91FF90EF900D
:06194800DF90CF9008952E
:10194E00E89409C097FB3EF490958095709561954B
:10195E007F4F8F4F9F4F9923A9F0F92F96E9BB2701
:10196E009395F695879577956795B795F111F8CF7D
:10197E00FAF4BB0F11F460FF1BC06F5F7F4F8F4FE8
:10198E009F4F16C0882311F096E911C0772321F0DE
:10199E009EE8872F762F05C0662371F096E8862F76
:1019AE0070E060E02AF09A95660F771F881FDAF7CD
:0A19BE00880F9695879597F9089514
:1019C8008F929F92AF92BF92CF92DF92EF92FF9247
:1019D800CF93DF93EC01688179818A819B816115BE
:1019E80071058105910521F464E279ED8BE597E0B5
:1019F8002DE133EF41E050E046D049015A019B0107
:101A0800AC01A7EAB1E42FD06B017C01ACEEB4EFD6
:101A1800A501940134D0DC01CB018C0D9D1DAE1DB8
:101A2800BF1DB7FF03C00197A109B04888839983F8
:101A3800AA83BB839F77DF91CF91FF90EF90DF90D0
:101A4800CF90BF90AF909F908F900895B9CF8DEDB4
:101A580093E0B6CFA0E0B0E0EDEDF3E080839183B2
:061A6800A283B383089580
:101A6E0023D0A59F900DB49F900DA49F800D911D26
:041A7E001124089592
:0C1A8200B7FFF4CFF3DF821B930B089535
:101A8E00052E97FB16F400941ED057FD05D023D0DB
:101A9E0007FC02D046F417C050954095309521951D
:081AAE003F4F4F4F5F4F0895B9
:101AB600A29FB001B39FC001A39F700D811D112489
:0E1AC600911DB29F700D811D1124911D089578
:101AD40090958095709561957F4F8F4F9F4F089596
:101AE400A1E21A2EAA1BBB1BFD010DC0AA1FBB1F1E
:101AF400EE1FFF1FA217B307E407F50720F0A21B90
:101B0400B30BE40BF50B661F771F881F991F1A94FC
:101B140069F760957095809590959B01AC01BD0126
:041B2400CF01089550
:101B2800CF92DF92EF92FF920F931F9360915C0226
:101B380070915D0280915E0290915F0221E1C22E58
:101B480021E0D22EE12CF12C00E81FE3A801970137
:101B580019DA209113019091120180911101E8E1A5
:101B6800F1E0808391832283339632E0E035F307F6
:101B7800C1F720911401309115014091160150913F
:101B8800170160915C0270915D0280915E029091F4
:101B98005F02DEDB6B017C0120E030E044EB53E4C4
:101BA80010DC18164CF520E030E044EB53E4C70194
:101BB800B601CDDB60935C0270935D0280935E0298
:101BC80090935F02809157028F5F809357028B300A
:101BD80040F481E01F910F91FF90EF90DF90CF903C
:101BE800089581E00E94790281E01F910F91FF9092
:101BF800EF90DF90CF900895C0925C02D0925D0282
:101C0800E0925E02F0925F0281E01F910F91FF90D7
:081C1800EF90DF90CF900895DA
:101C20009F92AF92BF92CF92DF92EF92FF920F936B
:101C30001F93CF93DF93EC01962ECA01B901A8013F
:101C4000970186017501E1E1CE2EE1E0DE2E9ED9FD
:101C5000911018C0FE01E05AFD4F80911101808360
:101C6000809112018183809113018283DF91CF9152
:101C70001F910F91FF90EF90DF90CF90BF90AF90AA
:101C80009F900895CE01DF91CF911F910F91FF900A
:0E1C9000EF90DF90CF90BF90AF909F902DC946
:101C9E00AF92BF92CF92DF92EF92FF920F931F936C
:101CAE00CF93DF93D1DEBC01990F880B990B4ADEDF
:101CBE0020E03EEF4FEF56E478DB20E030E040EAE4
:101CCE0050E440DB20E030E040E05FE33EDB609339
:101CDE0058027093590280935A0290935B02B4DEBD
:101CEE00BC01990F880B990B2DDE20E03EEF4FEFD4
:101CFE0056E45BDB9B01AC0128DB20E030E040E0EA
:101D0E005FE323DB60930D0170930E0180930F014F
:101D1E0090931001109250021092510210925202A2
:101D2E00109253021092540210920C0110920B0159
:101D3E00C12CD12C7601C0E0D0E008C0C09050027A
:101D4E00D0905102E0905202F09053029E01ABEA05
:101D5E00BAEAAADE96958795BC0180E090E0F0DDA8
:101D6E00209158023091590240915A0250915B02D3
:101D7E00E9DAA7019601E9DA9B01AC01A12CB12C9D
:101D8E0060E8C62E6FE3D62E8601750160E0CE01A7
:101D9E0040DFC0910B01D0910C012396D0930C0122
:101DAE00C0930B01C83381E0D80740F281E0DF9188
:101DBE00CF911F910F91FF90EF90DF90CF90BF903A
:041DCE00AF90089535
:101DD200CF92DF92EF92FF920F931F93CF93DF93F5
:101DE20010920C0110920B01C0E0D0E09E01ABEA10
:101DF200BAEA60DE96958795BC0180E090E0A6DDA8
:101E0200209158023091590240915A0250915B023E
:101E12009FDA20915002309151024091520250912A
:101E2200530299DA31E1C32E31E0D32EE12CF12CA9
:101E320000E81FE3A8019701A8D8CE015CD8C091A1
:101E42000B01D0910C012396D0930C01C0930B018E
:101E5200C83381E0D80750F220910D0130910E0174
:101E620040910F0150911001609150027091510206
:101E720080915202909153026EDA6B017C0120E054
:101E820030E044EB53E4A0DA181624F520E030E009
:101E920044EB53E4C701B6015DDA609350027093DC
:101EA20051028093520290935302809154028F5FA9
:101EB200809354028B3050F481E0DF91CF911F91D7
:101EC2000F91FF90EF90DF90CF90089581E00E94F4
:101ED2007902F2CFC0925002D0925102E0925202A5
:061EE200F0925302E9CF6B
:101EE8009091C00095FFFCCF8093C60080E090E001
:021EF80008954B
:011EFA00FFE8
:0A1EFB00CE069D06E006DA06D406C6
:0C1F05004F0EE90E6C077A07540C940D87
:011F110007C8
:101F1200570F005E0F00660F00690F00710F007B04
:081F22000F00800F00880F0082
:0F1F2A00000000000200000000740F0000000023
:041F390001000000A3
:00000001FF
