:1000000062C000000C945C090C945C090C945C09BF
:100010000C945C090C945C090C945C090C945C09CC
:100020000C945C090C945C090C945C090C94CC0B4A
:100030000C945C090C945C090C945C090C945C09AC
:100040000C946A0B0C945C090C945C090C945C098C
:100050000C945C090C945C090C945C090C945C098C
:100060000C94430E0C945C090C945C090C945C0990
:100070000C945C090C945C090C945C090C945C096C
:100080000C945C090C94F50B0C945C090C945C09C1
:100090000C945C090C945C090C945C090C945C094C
:1000A0000C945C090C945C090C945C090C945C093C
:1000B0000C945C090100011D80011D0170001D42AE
:1000C0000170019A800011241FBECFEFD8E0DEBF7F
:1000D000CDBFE4EBF0E040E017C0B591A5913591BC
:1000E0002591059107FD0CC095918591EF01F92FA0
:1000F000E82F05900D92A217B307D9F7FE0104C0AF
:100100001D92A217B307E1F7E53CF40731F703D0DE
:0601100000C0F894FFCFCF
:1001160035D32FEF84E39CE0215080409040E1F7F7
:1001260000C0000063E075E180E043D1439AEFEF41
:1001360022E587E0E15020408040E1F700C0000062
:10014600409A9FEFE2E527E09150E0402040E1F73A
:1001560000C000002D9A8FEF92E5E7E081509040B5
:10016600E040E1F700C000002A9A2FEF82E597E011
:10017600215080409040E1F700C000005F9AEFEF09
:1001860022E587E0E15020408040E1F700C0000012
:100196002F9A9FEFE2E527E09150E0402040E1F7FB
:1001A60000C00000709A8FEF92E5E7E08150904022
:1001B600E040E1F700C0000081E043D181E0E7D0F4
:1001C60083E0E5D085E0E3D087E0E1D089E0DFD0C9
:1001D6008BE0DDD0789401E312E48FE1C82E85E14F
:1001E600D82E80E0E82EC0E0D0E004C02196C830CA
:1001F600D10569F0FE01E15FFE4F80818823B1F3EE
:1002060010828C2FD4D12196C830D10599F78091D0
:100216007301882331F0813009F4A6C081508093A0
:10022600730180911D01882309F47CC010921D0181
:10023600C09102018C2F880FC0910301CC0FCC0F07
:10024600C82B809101019C2F982BC0910401CC0FE3
:10025600CC0FCC0FC92B9091050120E1929FC001D4
:100266001124C82B90917401E0E29E9FC0011124D5
:10027600C82BC0FF65C071E3C1FF65C061E3C2FF63
:1002860065C051E3C3FF65C041E3C4FF65C031E308
:10029600C5FF65C021E3C6FF65C091E38C2F80953D
:1002A600881F8827881FE02FE81B1F921F931F9225
:1002B6007F931F926F931F925F931F924F931F928C
:1002C6003F931F922F931F929F931F92EF931F921C
:1002D600CF93EF92DF92CF9203D28DB79EB7479618
:1002E6000FB6F8949EBF0FBE8DBF0BC0823021F1B2
:1002F6009FEFE4E32CE09150E0402040E1F700C09E
:1003060000004C2F61E082E4FFD1882339F0813070
:1003160069F762E675E180E04CD0EACF66E775E101
:1003260080E047D08FE798E3E1E081509040E040DD
:10033600E1F700C0000057CF6CE675E180E0ECCF36
:1003460070E3C1FD9BCF60E3C2FD9BCF50E3C3FDCD
:100356009BCF40E3C4FD9BCF30E3C5FD9BCF20E39D
:10036600C6FD9BCF90E39ACF90910501992351F05A
:1003760020917001309171012F7730937101209394
:0E03860070014CCF87E003D08091730147CF08
:10039400209170013091710141E050E002C0440F9E
:1003A400551F8A95E2F7242B352B30937101209346
:0403B4007001089537
:1003B800CF92DF92EF920F931F93CF93DF93E09149
:1003C8001901F0911A01948191FF2DC06B01E82E5B
:1003D800D0E0C0E007E111E0F6018491E7FC8081FC
:1003E8008823A1F0D80112966D917C911397DB01B7
:1003F8001996ED91FC911A970995892B11F0DFEF69
:10040800CFEFBFEFCB1ADB0AEB0AE6CF60911901F9
:1004180070911A01DB011996ED91FC911A978AE007
:100428000995892B19F08FEF9FEF02C08D2F9C2F14
:10043800DF91CF911F910F91EF90DF90CF900895AA
:10044800CF93C82FE82FF0E0CF01880F991FE80F4E
:10045800F91FE25DFE4F82818F9381818F938081A6
:100468008F93E0917501F0E0CF01880F991FE80F95
:10047800F91FE25DFE4F82818F9381818F93808186
:100488008F938FEC94E1A0E0AF939F938F9327D144
:10049800109200018DB79EB709960FB6F8949EBFCB
:1004A8000FBE8DBFC13079F1C230C9F0C33009F435
:1004B80064C0C43091F480E069DF80910E0181113D
:1004C8006DC080917001909171019F7D9093710131
:1004D8008093700184E080937501CF910895809195
:1004E8000E0181112AC080917001909171018E7F57
:1004F80090937101809370018DE048DF82E08093D2
:100508007501CF910895909101018091020189238D
:10051800909103018923A1F080910401882381F03F
:1005280080917001909171018E7F909371018093F9
:1005380070018DE02BDF81E0E2CF80E027DFDCCFA8
:1005480080E024DF9091010180910201892B909134
:100558000501892B90910301892B59F7809104019A
:100568008111E7CF80917001909171019F7D9093E7
:1005780071018093700181E0C2CF80E007DF809134
:100588000E0181110FC080917001909171019F7DC2
:10059800909371018093700183E0B1CF8DE0F6DE16
:0C05A80084E099CF8DE0F2DE83E0A9CF63
:1005B400CF93C82F1F928F9381EF94E1A0E0AF9364
:1005C4009F938F938ED00F900F900F900F900F905A
:1005D400C11109C080917501813019F183508230B5
:1005E40078F1CF910895C13009F441C0C23009F4C3
:1005F40047C0C33009F44EC0C43029F1C53009F4F2
:1006040051C0C63009F467C0C73059F780917501ED
:10061400813009F44DC0823099F0833011F784E0C1
:1006240010C09091020180910101892390910301EE
:10063400892321F0809104018111D3CF82E001C08C
:1006440081E0CF91FFCE809105018823F1F087E00E
:100654009FDE809174018F5F833078F01092740173
:1006640081E080931D018AE080937301BACF609189
:1006740001016C2780E0CF9183C080937401F0CF97
:100684006091020181E06827F6CF1092740161E065
:1006940084E0F1CF109274016091050181E0682734
:1006A40084E0E9CF6091030181E0682782E0E3CF31
:1006B4009091010180910201892B90910301892B72
:1006C40090910401892B29F480910501882309F470
:1006D40088CF83E0B6CF6091040181E0682783E08E
:0206E400CACF7B
:1006E600A0E0B0E0E8E7F3E09DC39E012B5F3F4F3B
:1006F600F9014191519161919F0180911901909168
:080706001A014ED1E2E073C3B9
:10070E00FF920F931F93CF93DF9300D0CDB7DEB739
:10071E00F82E69834A8300E117E203C001501109E4
:10072E00F9F08F2DF0D38130C9F3BE016E5F7F4F8C
:10073E008CE89EE07FD361E070E0CE01019690D30D
:10074E0060E070E086E99EE09CD3B1D300E117E251
:10075E0003C00150110961F0BDD38130D1F380E0A7
:10076E000F900F90DF91CF911F910F91FF900895F1
:04077E0082E0F6CF50
:0207820017C49A
:100784000F931F93CF93DF93C82FD62F082F10E01A
:100794001F926F931F928F938AEB94E1A0E0AF9323
:1007A4009F938F939EDFF801EF5FFE4F8DB79EB747
:1007B40007960FB6F8949EBF0FBE8DBF8081D817E1
:1007C40019F081E080931D01D083809175018130FF
:1007D40009F43DC0DD23B1F0C23009F474C008F05F
:1007E4009EC0C1114FC080917001909171018D7FA5
:1007F400909371018093700182E0DF91CF911F91FA
:100804000F91C6CDC23009F456C008F4A6C0C33057
:1008140009F449C0C430B1F485E0BADD80917001B7
:10082400909171018F7B909371018093700187E0A7
:10083400AFDD80917001909171019E7F9093710161
:1008440080937001DF91CF911F910F910895909142
:10085400010180910201892390910301892309F404
:1008640041C080910401882309F43CC08091700147
:10087400909171018E7F90937101809370018DE04E
:1008840087DDA8CFC130F1F680917001909171019C
:10089400877F909371018093700184E0DF91CF9101
:1008A4001F910F9175CD8BE073DD80917001909154
:1008B40071019F7EC3CF89E06BDD809170019091BF
:1008C40071019B7FBBCF80917001909171019D7FDD
:1008D40090937101809370018AE0DF91CF911F9111
:1008E4000F9156CD80E054DD909101018091020179
:1008F400892B90910501892B90910301892B09F093
:10090400BECF809104018111BACF80917001909182
:1009140071019F7D90937101809370015BCFC3300F
:1009240049F1C43009F08ECF80917001909171012A
:100934008F7D909371018093700186E029DD809111
:100944007001909171018F77909371018093700180
:10095400DD2309F46ECF88E050CFCC23D1F0C13031
:1009640009F070CF83E014DD8091700190917101E2
:100974008F7E64CF8091700190917101977F9093E5
:100984007101809370018CE0DF91CF911F910F91E1
:10099400FFCC81E0FDDC80917001909171018B7F2F
:0209A4004DCF35
:1009A6002F923F924F926F927F928F929F92AF9229
:1009B600BF92CF92DF92EF92FF920F931F93CF9346
:1009C600DF93CDB7DEB762970FB6F894DEBF0FBEE2
:1009D600CDBF6C013A01862E7901FC011086178283
:1009E600848181FFDAC19E012F5F3F4F3D872C87AF
:1009F600C901A0E8888B998BAA8B9FE3992EF301F6
:100A0600849187FC8081882309F4C3C1482D930112
:100A16002F5F3F4F4F4F853219F03901842E0AC0A0
:100A2600F901849147FD808192E0690E711C811C59
:100A3600853221F4B60190E013D3E1CFB12C00E06A
:100A460010E01032A0F48B3269F030F4803259F0A5
:100A5600833269F410612CC08D3239F0803339F459
:100A6600116026C01260146023C0186021C017FDF3
:100A760029C090ED980F9A3078F416FF06C0AAE0C8
:100A8600BA9E900D1124B92E13C0EAE00E9F900D68
:100A96001124092F10620CC08E3221F416FD79C183
:100AA600106406C08C3611F4106802C0883651F402
:100AB600F301849187FC8081FFEF6F1A7F0A8F0A0A
:100AC6008111BFCF982F9F7D9554933028F424E051
:100AD600E20EF11C99820FC0833631F0833791F014
:100AE600833509F05FC026C0F701808189839701AD
:100AF6002E5F3F4F7901288839884A88AA24A39413
:100B0600B12C16C0A7014D5F5F4F5F874E87F70177
:100B160020803180428016FF03C04B2D50E002C07A
:100B26004FEF5FEF842DB10135D35C01EE84FF8476
:100B36001F7717C097012D5F3F4F3F872E87F7011D
:100B460020803180428016FF03C04B2D50E002C04A
:100B56004FEF5FEF842DB1011DD35C011068EE8469
:100B6600FF8413FD1BC0802F90E0A816B906B0F4D1
:100B7600B60180E290E074D20150F5CFF101849184
:100B860047FC8081FFEF2F1A3F0A4F0AB60190E01B
:100B960067D20111015021E0A21AB108A114B104D3
:100BA60069F7EEC0843611F0893669F5F70117FF4B
:100BB60008C0608171818281938197012C5F3F4FCC
:100BC60009C060817181072E000C880B990B970173
:100BD6002E5F3F4F79011F76312E97FF0AC0909501
:100BE6008095709561957F4F8F4F9F4F312F30685D
:100BF600332E2AE030E0AE014F5F5F4F6DD2482EB4
:100C06004C85441A49C0853729F41F7EA12E2AE057
:100C160030E025C0512F597FA52E8F36C1F018F42C
:100C2600883579F0B6C0803719F0883721F0B1C021
:100C3600852F8061A82EA4FE0DC09A2D9460A92E42
:100C460009C014FF0AC0A52FA660AA2E06C028E078
:100C560030E005C020E130E002C020E132E0F701DB
:100C6600A7FE08C06081718182819381A7014C5FD4
:100C76005F4F07C06081718180E090E0A7014E5F01
:100C86005F4F7A01AE014F5F5F4F26D2482E5C85DB
:100C9600451A8A2D8F77382E36FE0DC0932D9E7FEE
:100CA600A92E4B1458F434FE0BC032FC09C0A32DF8
:100CB600AE7EAA2E05C0142DA32C03C0142D01C090
:100CC6001B2DA4FE0EC0FE01E40DF11D80818033B4
:100CD60021F4EA2DE97EAE2E08C0A2FE05C01E5FF5
:100CE60004C08A2D867809F01F5FA3FC10C0A0FE01
:100CF60006C0101780F4040DB02EB11A0DC01017DF
:100D060058F4B60180E290E0ABD11F5FF8CF101720
:100D160018F4011B02C0B42C00E0A4FE0FC0B601FB
:100D260080E390E09DD1A2FE16C0A1FC03C088E737
:100D360090E002C088E590E0B6010CC08A2D867866
:100D460051F0A1FE02C08BE201C080E2A7FC8DE259
:100D5600B60190E085D14B1430F4B60180E390E003
:100D66007FD1BA94F8CF4A94E1E0F0E0EC0FFD1F92
:100D7600E40DF11D8081B60190E072D14110F3CFF0
:100D8600002309F43CCEB60180E290E069D101501F
:100D9600F7CFF6018781908502C08FEF9FEF6296AD
:100DA6000FB6F894DEBF0FBECDBFDF91CF911F9176
:100DB6000F91FF90EF90DF90CF90BF90AF909F90F4
:0E0DC6008F907F906F904F903F902F900895E8
:100DD4002A88398848885F846E847D848C849B84C7
:100DE400AA84B984C884DF80EE80FD800C811B81D5
:100DF400AA81B981CE0FD11D0FB6F894DEBF0FBE04
:060E0400CDBFED010895D1
:100E0A002F923F924F925F926F927F928F929F9210
:100E1A00AF92BF92CF92DF92EF92FF920F931F93FE
:100E2A00CF93DF93CDB7DEB7CA1BDB0B0FB6F894AF
:080E3A00DEBF0FBECDBF09941D
:100E4200009749F0909383018093820170938F0100
:100E520060938E0108958EE59CE0909383018093C8
:0C0E6200820110928F0110928E01089501
:100E6E009C019091760192FF0BC0309379012093F3
:100E7E00780170937B0160937A019B7F909376014A
:020E8E000895C5
:100E9000009749F0909387018093860170939301A6
:100EA0006093920108958EE59CE090938701809372
:0C0EB000860110929301109292010895A7
:100EBC008091760180FF02C081E00895816080936B
:100ECC00760182E0809380018091BC00806A8093DF
:060EDC00BC0080E0089557
:100EE2008091760180FD13C08D7F809376018FEF14
:100EF200809377018091BC0080688093BC008091D0
:100F0200BC008E7F8093BC0080918101089581E0B6
:020F1200089540
:100F14009091760191FD49C080937701947F8EE092
:100F24008093800124EF31E030937F0120937E0190
:100F340092609460909376018EE59CE09093830197
:100F44008093820110928F0110928E0190938501FB
:100F540080938401109291011092900190938701E3
:100F640080938601109293011092920190938901CB
:100F740080938801109295011092940180E69CE080
:100F840090938B0180938A0110929701109296019D
:100F940080E98093BC0084E88093BC008091BC000D
:0E0FA40081608093BC0080E0089581E0089594
:100FB2008DE3809365008FEF8093640094B114B841
:100FC20095B185B997B1907897B998B19F6798B95B
:100FD2009AB11AB89BB18BB98DB1807F8DB98EB1A0
:100FE2008F608EB920982098289A219A2998229A5F
:100FF2002A98239823982B9A249A2C98259A2D98EC
:10100200269A2E98279A2F98389A40983998399884
:10101200419A3A983A98429A3B9A439852985298EF
:101022005A9A539A5B98549A5C98559855985D9A37
:10103200569A5E98579A5F98689A709869986998D4
:10104200719A6A986A98729A6B9A739840E060E80B
:1010520081E690E002D113BE15BEB9D0BFD0CAD08E
:04106200E0D0F6C024
:101066000F931F93CF93DF93FB01248121FD03C0D0
:101076008FEF9FEF2CC022FF16C047815085258138
:1010860036814217530744F4A081B1819D012F5F39
:101096003F4F318320838C93278130852F5F3F4FCD
:1010A6003087278314C08B01EC01FB010184F28594
:1010B600E02D0995892BE1F6D80117968D919C9123
:1010C6001897019618969C938E931797CE01DF91E9
:0810D600CF911F910F910895C5
:1010DE00FA01AA27283051F1203181F1E8946F935B
:1010EE006E7F6E5F7F4F8F4F9F4FAF4FB1E03ED001
:1010FE00B4E03CD0670F781F891F9A1FA11D680F9F
:10110E00791F8A1F911DA11D6A0F711D811D911DD1
:10111E00A11D20D009F468943F912AE0269F112446
:10112E003019305D3193DEF6CF010895462F4770AA
:10113E00405D4193B3E00FD0C9F7F6CF462F4F7005
:10114E00405D4A3318F0495D31FD4052419302D063
:10115E00A9F7EACFB4E0A695979587957795679509
:10116E00BA95C9F700976105710508959B01AC0109
:10117E000A2E06945795479537952795BA95C9F730
:0C118E00620F731F841F951FA01D0895A1
:10119A00CF92DF92EF926B01E82EA82FCB01411577
:1011AA00510531F48C199D09EF90DF90CF90089585
:1011BA00FC012491A7FD20812223A1F30196A11D00
:0611CA0041505109ECCF79
:0E11D0003D9A459845983C9A4498449846C0EC
:1011DE00E4E6F0E080818F7D808385E085BD81E04F
:0811EE0080936E0080E008957B
:1011F600E4E6F0E08081877F80838DE18093810043
:1012060080E090E190938700809386009093890018
:0E1216008093880082E080936F0080E008954E
:10122400E5E6F0E080818E7F80838CE180939100FD
:1012340081E090E0909397008093960090939900BA
:0E1244008093980082E08093710080E008950E
:0A12520050985898519A599816C008
:0E125C002FB7F894FC01608340832FBF0895E4
:10126A00E4E6F0E080818F77808385E08093BC009C
:0E127A0082E68093B80081E08093B900089569
:10128800E4E6F0E080818D7F80831092C50088E0DD
:101298008093C40082E08093C00088E88093C100F6
:1012A80081E691E090931A018093190180E00895F6
:0412B8000C94000092
:0612BC0083B1817008956A
:0A12C20083B183FB882780F90895AB
:0812CC0086B18695817008953A
:0A12D40086B182FB882780F9089597
:0A12DE0089B182FB882780F908958A
:0A12E80089B185FB882780F908957D
:0812F2008CB18695817008950E
:0A12FA008CB182FB882780F908956B
:10130400809172018F5F80937201809172018436A3
:1013140009F46CC080917201811154C080917001F4
:101324009091710180FD6BC0809170019091710169
:1013340081FD6CC0809170019091710182FD6DC03E
:10134400809170019091710183FD6EC08091700154
:101354009091710184FD6FC0809170019091710131
:1013640085FD70C0809170019091710186FD71C0FE
:10137400809170019091710187FD72C0809170011C
:101384009091710190FD73C08091700190917101F1
:1013940091FD74C0809170019091710192FD75C0AE
:1013A400809170019091710193FD76C080917001DC
:1013B4009091710194FD77C08091700190917101B9
:1013C40095FD17C0809172018E3009F008954398FD
:1013D400409873982D982C982A9829985F985E982D
:1013E4002F982E9870985C985B98089510927201CB
:1013F40091CF5B9A809172018E3041F7E8CF439A86
:10140400809170019091710181FF94CF409A8091F5
:1014140070019091710182FF93CF739A8091700152
:101424009091710183FF92CF2D9A809170019091D8
:10143400710184FF91CF2C9A809170019091710178
:1014440085FF90CF2A9A809170019091710186FF57
:101454008FCF299A809170019091710187FF8ECF6F
:101464005F9A809170019091710190FF8DCF5E9A87
:10147400809170019091710191FF8CCF2F9A80918E
:1014840070019091710192FF8BCF2E9A809170011F
:101494009091710193FF8ACF709A8091700190911D
:1014A400710194FF89CF5C9A8091700190917101D0
:0614B40095FF88CF9ECFDA
:1014BA0052656C61792025642073657420746F20ED
:1014CA002564200A0053797374656D206D6F646515
:1014DA00206368616E67652066726F6D20257320D0
:1014EA00746F2025730A00427574746F6E206163ED
:1014FA0074696F6E2025640A000A6C696768742D26
:10150A006465736B2D63746C2076302E312062799A
:10151A00206B6975004932432073656E64696E6792
:10152A00207061796C6F6164203078253032686888
:10153A0058202825632563256325632563256325AC
:10154A006325632920746F20736C61766520307877
:10155A002530326868580A005457493A2042555390
:10156A0059005457493A204641494C005457493A80
:10157A00204F4B00494E49540049444C4500504FB6
:10158A005745525F555000504F5745525F444F5789
:10159A004E5F5741495400504F5745525F444F5789
:0215AA004E00F1
:1015AC00809100018F5F80930001909175019230C2
:1015BC0029F0933049F19430C9F1089590910E01BE
:1015CC00911164C020917001309171012E7F309384
:1015DC0071012093700180FDF0CF8091010188236F
:1015EC0009F469C080910201882309F467C08091D5
:1015FC000301882309F465C080910401882309F450
:10160C0057C081E00C94240290910E01911144C0BA
:10161C0020917001309171013F7D309371012093C5
:10162C007001883750F284E00C94240290910E01E2
:10163C00911138C020917001309171013F7D309330
:10164C0071012093700180FDB8CF20E338E140E0B8
:10165C0083E0E82FF0E0EF5FFE4F9081911114C012
:10166C002F5F3F4F4F4F253388E1380780E0480705
:10167C0041F2F901849147FD8081E82FF0E0EF5FA2
:10168C00FE4F9081992361F360E076C880E00E9460
:10169C00CA01809100019FCF8DE00E94CA01809108
:1016AC000001BFCF8DE00E94CA0180910001CBCF19
:1016BC0083E061E0EACF80E061E0E7CF81E061E0C8
:0816CC00E4CF82E061E0E1CF10
:1016D4001F920F920FB60F921124DF92EF92FF9296
:1016E4000F931F932F933F934F935F936F937F9326
:1016F4008F939F93AF93BF93CF93DF93EF93FF9316
:101704008EE1E82E81E0F82EC0E0D0E0DD24D39411
:101714000AC08C9181508C932196F2E0EF0EF11C5B
:10172400C830D105E9F08E010A5F1E4FD8018C91B3
:101734008111EFCFD701ED91FC9109958111ECCF87
:10174400C43031F18EE1F8018083FE01E15FFE4F88
:10175400D0822196F2E0EF0EF11CC830D10519F7C2
:10176400FF91EF91DF91CF91BF91AF919F918F91B5
:101774007F916F915F914F913F912F911F910F91A5
:10178400FF90EF90DF900F900FBE0F901F90189571
:041794008AE0D9CF3F
:101798001F920F920FB60F9211242F933F934F93DE
:1017A8005F936F937F938F939F93AF93BF93EF93C1
:1017B800FF9390910E0181E0892780930E01F2DE5C
:1017C800FF91EF91BF91AF919F918F917F916F9111
:1017D8005F914F913F912F910F900FBE0F901F90E7
:0217E800189552
:1017EA001F920F920FB60F9211242F933F934F938C
:1017FA005F936F937F938F939F93AF93BF93EF936F
:10180A00FF937BDDFF91EF91BF91AF919F918F91F4
:10181A007F916F915F914F913F912F910F900FBEE2
:06182A000F901F901895BD
:051830000302040100A9
:101835000080E98093BC00E6E7F1E080818E7F803F
:071845008313868EE0089575
:10184C00E6E7F1E080818E7F8083138680E0089547
:0E185C00ECEBF0E08081806A808382E00895EA
:0E186A00ECEBF0E08081806A808381E00895DD
:02187800F8CFA7
:10187A00ECEBF0E0808180698083E6E7F1E080812B
:0A188A008E7F8083138680E00895AE
:02189400F2CF91
:0E189600ECEBF0E08081806A808388E00895AA
:1018A40080E98093BC00E6E7F1E080818E7F80834D
:0818B40082E083878EE00895B5
:0418BC0081E008952A
:0418C00085E0089522
:1018C40082E080938101E0918601F091870180910B
:1018D40092019091930109958230B9F0833039F4E3
:1018E4008091BC00806A8093BC0082E0089580915E
:1018F400BC0080698093BC00809176018E7F8093C8
:1019040076011092810180E008958091BC00806A84
:081914008093BC0081E00895FE
:10191C008091B900887F883111F483E00895CCCF91
:10192C008091B900887F883089F08091B900887FD8
:10193C00803161F080E98093BC00809176018E7FCC
:10194C0080937601109281018EE008958091770149
:10195C00880F81608093BB008091BC008F7D809349
:10196C00BC008091BC0080688093BC008AE0089524
:10197C008091B900887F803469F480917A019091CC
:10198C007B01019741F08091BC0080648093BC0086
:10199C0084E0089591CF8091BC008F7B8093BC0034
:0419AC0084E0089536
:1019B0008091B900887F803349F18091B900887F98
:1019C000883421F18091B900887F8032F9F0E0916C
:1019D0007801F0917901CF0101969093790180937C
:1019E000780180818093BB008091BC0080688093E7
:1019F000BC0080917A0190917B01019790937B01CB
:101A000080937A01892BB1F485E00895E0918801F3
:101A1000F09189018091940190919501099582300E
:101A2000C9F0833049F48091BC00806A8093BC0087
:101A300082E0089583E008958091BC0080698093DE
:101A4000BC00809176018E7F809376011092810197
:101A500080E008958091BC00806A8093BC0081E0A2
:021A60000895E7
:101A62008091B900887F803589F08091B900887FA4
:101A7200883561F080E98093BC00809176018E7F89
:101A820080937601109281018EE0089580917A010F
:101A920090917B012091BC008230910509F1206474
:101AA2002093BC00019790937B0180937A01E0918F
:101AB2007801F0917901892BA9F08091BB00808394
:101AC20080917801909179010196909379018093A8
:101AD20078018091BC0080688093BC0084E0089506
:101AE2002F7BDECF8091BB00808380917801909123
:101AF2007901019690937901809378018091760122
:101B0200846080937601E0918201F091830180915B
:101B12008E0190918F0109958250823038F4809124
:101B2200BC00806A8093BC0088E008958091BC006C
:101B320080698093BC00809176018E7F80937601CC
:081B42001092810180E008957A
:101B4A008091B900887F803361F18091B900887FE4
:101B5A00883439F18091B900887F803211F18091FF
:101B6A007601846080937601E0918201F09183018D
:101B7A0080918E0190918F0109958330F9F084301C
:101B8A0059F1823011F18091BC0080698093BC00C8
:101B9A00809176018E7F809376011092810180E098
:101BAA000895E0918801F0918901809194019091C2
:101BBA0095010995823049F0833029F78091BC005C
:101BCA00806A8093BC0082E008958091BC00806A9C
:0A1BDA008093BC0081E00895E6CE80
:101BE40082E080938101E0918401F09185018091EC
:101BF40090019091910109958230A9F0833039F4D4
:101C04008091BC00806A8093BC0082E0089580E9E2
:101C14008093BC00809176018E7F80937601109230
:101C240081018EE008958091BC00806A8093BC009D
:041C340081E00895AE
:101C38008091B900887F883089F08091B900887FC9
:101C4800803161F080E98093BC00809176018E7FBD
:101C580080937601109281018EE00895809177013A
:101C6800880F8093BB008091BC008F7D8093BC005F
:0E1C78008091BC0080688093BC008BE00895D2
:101C86001F920F920FB60F9211242F933F934F93EB
:101C96005F936F937F938F939F93AF93BF93EF93CE
:101CA600FF938091B900887F883399F08091B900BD
:101CB600887F883671F08091B900887F883749F02F
:101CC6008091B900887F803B21F0E0918001F0E0AF
:101CD60005C080E180938001E0E1F0E0EE0FFF1F98
:101CE600E35CFE4F0190F081E02D09958093800121
:101CF600FF91EF91BF91AF919F918F917F916F91DE
:101D06005F914F913F912F910F900FBE0F901F90B3
:021D160018951E
:101D180061E070E0A8D860E070E080E090E08DD8E5
:041D280084E00895B6
:041D2C0083E00895B3
:101D30009091C00095FFFCCF8093C60080E090E0BA
:021D4000089504
:011D4200019F
:101D43006A0966097D0961095E09740979096F09E0
:0F1D53007E1500831500881500911500A115005D
:101D6200260C960C1C0ED80C310DA50D3C0C2E0C1D
:101D7200350C4A0CBE0C8E0C3D0C4B0C1B0C620C31
:041D8200F20D520C00
:0F1D8600000000000200000000980E00000000A6
:00000001FF
